:020000040000FA
:0600000002EF1AF01200ED
:0600080004EF08F01200F5
:060018000CEF08F01200DD
:0610000002EF1AF01200DD
:021006001200D6
:0610080016EF08F01200D3
:061018001DEF08F01200BC
:02101E000100CF
:0C102000203400006000000056000000BA
:04102C00DACFE4FF34
:10103000E652E552E5CFDAFF1100D8CFE4FFE0CF6A
:10104000E4FFE46EDACFE4FFE2CFDAFFE9CFE4FFBA
:10105000EACFE4FFF6CFE4FFF7CFE4FFF3CFE4FFFE
:10106000F4CFE4FFFACFE4FF00EE00F0140EE80442
:1010700003E3EECFE4FFFBD7E652D9CFE6FFE1CFA3
:10108000D9FF030EE126F2A419D1F294000000006A
:101090000000000000000000000000000000000050
:1010A0000000000000000000000000000000000040
:1010B0000000000000000000000000000000000030
:1010C000000000000000176A186A010E196E000186
:1010D000B1511D6E1E6A770E086E010E096E1DC09D
:1010E0000DF01EC00EF038EC19F006C01AF007C063
:1010F0001BF01C6A1BBE1C681A50175C146E1B5038
:101100001858156E1C501958166E090E1426000E2C
:101110001522000E162214C0DEFF15C0DDFFDECF43
:1011200014F0DDCF15F015C014F0156A1450D76E09
:10113000DF50D66E8250010B010AF36EF3CF1EF022
:101140008250020B020A01E0010EF36EF3CF1DF094
:101150008250040B040A01E0010EF36EF3CF1CF081
:101160008150100B100A01E0010E000EF3CF1BF0AE
:101170008150200B200A01E0010E800DF3CF1AF000
:101180008150400B400A01E0010E400DF3CF19F0F1
:101190008150800B800A01E0010E200DF3CF18F082
:1011A0008250800B800A01E0010E100DF3CF17F082
:1011B0008250400B400A01E0010E080DF3CF16F0FB
:1011C0008250080B080A01E0010E040DF3CF15F060
:1011D0008250100B100A01E0010EE824146E8250B8
:1011E000200B200A01E0010E141015101610171024
:1011F000181019101A101B101C101D101E100101C0
:10120000586F596B800B01E05969020EDB6A020EC0
:10121000DBCF14F00C0EE76E1418E8AE02D0E73402
:1012200002D0E750145C4AE2010EF36E020EDB506E
:1012300004E0D890F336E806FCE1F350166E176A26
:1012400016BE17680101010158511614146E0101F0
:10125000010159511714156E1450151002E0010EBA
:1012600001D0000E00091CE0020EDBCFE9FFEA6AA4
:10127000E9BEEA685A0EE926010EEA22EFCF14F021
:101280000001B251145C0BE2020EDBCFE9FFEA6A07
:10129000E9BEEA685A0EE926010EEA22EF2A0BD0CF
:1012A000020EDBCFE9FFEA6AE9BEEA685A0EE926D8
:1012B000010EEA22EF6A020EDB2AA9D7030EE15CD7
:1012C00002E2E16AE552E16EE552E7CFD9FFE5526D
:1012D00000EE13F0140EE80403E3E5CFEDFFFBD7B7
:1012E000E5CFFAFFE5CFF4FFE5CFF3FFE5CFF7FF5A
:1012F000E5CFF6FFE5CFEAFFE5CFE9FFE5CFDAFF7F
:10130000E550E5CFE0FFE5CFD8FF100004D8D8ECDA
:1013100010F062D9FCD70F0EC11202D873EF10F093
:10132000D9CFE6FFE1CFD9FF060EE126010EF36E1D
:10133000020EF3CFDBFFF00E936E94688B687E6A2B
:101340007F6AF19E7888788A788C788E0101506B5C
:10135000516B526B536B546B556B566B576B000153
:101360007D6B7E6B7F6B806B02016C6B6CC26BF272
:101370006CC26AF26CC269F26F6B6FC26EF26FC2BE
:101380006DF20201686B68C267F268C266F268C2F9
:1013900065F268C264F268C263F268C262F268C24F
:1013A00061F20101436B43C142F143C141F143C1C9
:1013B00040F119EC10F04FC149F14FC148F1446BB5
:1013C000456B800E466F476FDF6AFEEC0FF0E8AEAC
:1013D00002D0E73402D0E7501F5C4FE2D5EC0FF0AB
:1013E000E9BEEA685A0EE926010EEA22EF6A010E0A
:1013F000DB6A25EC10F0E8AE02D0E73402D0E7500B
:101400001F5C39E2DFCF21F0226A21BE2268030E81
:101410002202F3CF22F02102F3CF21F0F450222652
:101420008D0E2126000E2222010EDBCF23F0246A2E
:1014300023BE2468215023241F6E22502420206EB6
:101440001FC0E6FF2BEC10F0E6EC0FF0050DF3CF1C
:1014500025F0266A25BE266825C0E6FF26C0E6FFE1
:10146000E7EC17F0276E060EE15E2750E76E030EDD
:1014700041EC10F0BED7DF2AA8D7B10EE66E000E01
:101480002BEC10F0B40E04EC10F0B20EE66E000E71
:101490002BEC10F0B90E04EC10F000018D5159E066
:1014A0008D0557E0020E8D5D54E0030E8D5D51E019
:1014B000DF6AFEEC0FF0E8AE02D0E73402D0E7506E
:1014C0001F5C2EE2010EDB6A25EC10F0E8AE02D0C4
:1014D000E73402D0E7501F5C21E2DFCF1FF0206A23
:1014E0001FBE2068ADEC0FF021BE2268F0EC0FF0BB
:1014F000EF6A050EE66EE66AE6EC0FF0050DF3CF37
:101500001FF0206A1FBE20681FC0E6FF20C0E6FF54
:10151000BFEC0FF0030E41EC10F0D6D7DF2AC9D78D
:1015200000010A0EB16F030EB26F050EE66E0A0ED1
:10153000E66EB40E51EC10F0030EE7CFDBFF050EA4
:10154000E66E030EE66EB90E51EC10F0030EE7CF17
:10155000DBFF840ED56E226A236A010E246E000121
:10156000B151286E296A770E086E010E096EB1C05E
:101570000DF029C00EF038EC19F006C025F007C0B8
:1015800026F0276A26BE27682550225C1F6E26504B
:101590002358206E27502458040E1FC0DBFF050E71
:1015A00020C0DBFF040E050EDBCF20F020C01FF0B3
:1015B0002050D76E040EDB50D66ED08EF194F28A96
:1015C000F28CF28E060EE15C02E2E16AE552E16E17
:1015D000E552E7CFD9FF1200D9CFE6FFE1CFD9FF1F
:1015E000070EE126200E0001E76EB619E8AE02D024
:1015F000E73402D0E750B65D02E226EF0FF0645008
:10160000020B02E026EF0FF0020EF36E030EF3CF93
:10161000DBFF0101666B676B686B696B6A6B6B6BF9
:101620006C6B6D6B6E6B6F6BDF6AFEEC0FF0E8AE90
:1016300002D0E73402D0E7501F5C01E315D1D5ECAE
:101640000FF0E9BEEA685A0EE926010EEA22EF50D1
:101650000001B25D01E006D1D5EC0FF0E9BEEA6809
:101660009FEC0FF0EF50030A01E1C2D0010A01E143
:1016700098D0030A01E0F6D0D5EC0FF0E9BEEA6895
:101680004EEC10F0090A69E0010A5BE00F0A4DE038
:10169000010A40E0030A30E0010A20E0070A10E0F6
:1016A000010A0BE0030A06E0010A01E076D001011D
:1016B000408173D00101408370D0010140856DD01D
:1016C0000101010E666F6C5168E1D5EC0FF0E9BEC7
:1016D000EA684BEC10F0EFCF6CF15FD00101010E26
:1016E000676F6D515AE1D5EC0FF0E9BEEA684BEC3B
:1016F00010F0EFCF6DF151D00101010E686F6E5106
:101700004CE1D5EC0FF0E9BEEA684BEC10F0EFCFFE
:101710006EF143D00101010E696F6F513EE1D5ECCE
:101720000FF0E9AE36D0EA6834D00101010E6A6FDD
:10173000D5EC0FF0E9BEEA684BEC10F0EFCF70F19A
:101740002CD00101010E6B6FD5EC0FF0E9BEEA68F9
:101750004BEC10F0EFCF71F120D0D5EC0FF0E9BEDB
:10176000EA684BEC10F0EFCF6CF1D5EC0FF0E9BE6E
:10177000EA684BEC10F0EFCF6DF1D5EC0FF0E9BE5D
:10178000EA684BEC10F0EFCF6EF1D5EC0FF0E9BE4C
:10179000EA684BEC10F0EFCF6FF10001050EB46F6B
:1017A00061D0030EDB5008081FE0D5EC0FF0E9BE56
:1017B000EA684BEC10F0EF5001014813D5EC0FF044
:1017C000E9BEEA684EEC10F0E66E030EDBCFE9FFEF
:1017D000EA6AE9BEEA68480EE926010EEA22E55205
:1017E000E750EF6E030EDB2A0001050EB56F3AD00D
:1017F000DCDBE9BEEA684EEC10F0010B02E001010F
:10180000476BD3DBE9BEEA684EEC10F0020B02E056
:1018100001014769CADBE9BEEA684EEC10F0040B2F
:1018200002E00101466BC1DBE9BEEA684EEC10F054
:10183000080B02E001014669B8DBE9BEEA684BEC3F
:1018400010F0EF5001014413B0DBE9BEEA6877DB2A
:10185000010EE926000EEA22EF380F0B45130001B6
:10186000050EB36FDF2AE1D601015051511102E19B
:10187000000E08D050C1E9FF51C1EAFFEF50800BC4
:1018800001E0010E000901E013D1660520E16C5171
:1018900039EC10F0000181272050822382351AE2B2
:1018A00081513208000E825515E281C01FF082C0BE
:1018B00020F055EC10F06BDB06C042F155EC10F057
:1018C00012EC19F004C081F005C082F003D00001D1
:1018D000816B826B0101670527E16D51CADB000155
:1018E000832720508423843522E283513208000E5E
:1018F00084551DE2320E1F6E206A83C008F084C03A
:1019000009F00D6E20C00EF012EC19F008C042F183
:10191000B4DB83C008F084C009F012EC19F004C0F5
:1019200083F005C084F003D00001836B846B010158
:1019300068051DE16E519DDB00018527205086233F
:10194000863518E285513208000E865513E285C0AF
:101950001FF086C020F0AFDB1ADB06C041F1ABDB25
:1019600012EC19F004C085F005C086F003D0000128
:10197000856B866B0101690527E16F517ADB0001F8
:10198000872720508823883522E287513208000EAD
:1019900088551DE2320E1F6E206A87C008F088C08D
:1019A00009F00D6E20C00EF012EC19F008C041F1E4
:1019B00064DB87C008F088C009F012EC19F004C09D
:1019C00087F005C088F003D00001876B886B0101A8
:1019D0006A0528E170514DDB0001892720508A23D8
:1019E0008A3523E28951E808030E8A551EE2E80E83
:1019F0001F6E030E206E89C008F08AC009F01FC058
:101A00000DF00E6E12EC19F008C043F13FDB89C0F7
:101A100008F08AC009F012EC19F004C089F005C082
:101A20008AF003D00001896B8A6B01016B051DE10F
:101A300071511FDB00018B2720508C238C3518E25D
:101A40008B51E808030E8C5513E28BC01FF08CC03D
:101A500020F037DB9CDA06C043F133DB12EC19F0DF
:101A600004C08BF005C08CF003D000018B6B8C6B35
:101A700040C16DF241C16EF242C16FF243C170F2DA
:101A80000101406B416B426B436B0001B451000894
:101A90000FE2040EE66E6D0EE66E020EE66E010EAD
:101AA000E66E87DAF3CF50F1F4CF51F10001B407BD
:101AB00001015451551102E1000E08D054C1E9FF53
:101AC00055C1EAFFEF50800B01E0010E000927E14C
:101AD00048C161F249C162F24AC163F24BC164F28A
:101AE0004CC165F24DC166F24EC167F24FC168F25A
:101AF000A0DA4FC148F10001B551000810E2080E0C
:101B0000E66E610EE66E020EE66E010EE66E030EE6
:101B100050DAF3CF54F1F4CF55F10001B5070101CC
:101B20005251531102E1000E08D052C1E9FF53C1D6
:101B3000EAFFEF50800B01E0010E000921E144C1F2
:101B400069F245C16AF246C16BF247C16CF2446B5F
:101B5000456B800E466F476F0001B351000810E2DD
:101B6000040EE66E690EE66E020EE66E010EE66E7D
:101B7000020E1FDAF3CF52F1F4CF53F10001B30795
:101B800000017D517E1102E1000E08D07DC0E9FF09
:101B90007EC0EAFFEF50800B01E0010E000901E07A
:101BA00055D102017951560A01E1D8D0610A01E10B
:101BB0008FD0B60A01E176D0010A01E03AD1050ED4
:101BC0007A5D01E036D1AA0E7B5D01E032D1550E7F
:101BD0007C5D01E02ED10A0E7D5D01E02AD10F0E61
:101BE0007E5D01E026D1DF6A09DAE8AE02D0E73493
:101BF00002D0E7501F5C3FE2010EDB6A26DAE8AE56
:101C000002D0E73402D0E7501F5C33E260DA060FFF
:101C1000E552E724E96EEA6AE9BEEA68790EE92648
:101C2000020EEA22EF50E66EDFCF1FF0206A1FBEE1
:101C3000206893D921BE2268D3D9E552E750EF6ED0
:101C4000050EE66EDFCF1FF0206A1FBE206885D923
:101C500021BE226843DA050DF3CF23F0246A23BEA8
:101C6000246823C0E6FF24C0E6FF89D9060E09DAFE
:101C7000C5D7DF2AB9D7A3C2B1F0A4C2B2F0050E0E
:101C8000E66EA3C2E6FFB40E0CDA060EE7CFDBFF6A
:101C9000050EE66EB2C0E6FFB90E03DA060EE7CF18
:101CA000DBFFC7D0810EB96F59C11FF0206A59C13F
:101CB000BAF258C1BBF200017F51801102E1000E5F
:101CC00003D095D901E0010E000901E0B2D0A3D004
:101CD00000017F51801102E1000E03D088D901E09C
:101CE000010E000901E0A5D00201370EB96FDF6ACD
:101CF00085D9E8AE02D0E73402D0E7501F5C1EE27F
:101D0000010EDB6AA2D9E8AE02D0E73402D0E75078
:101D10001F5C12E2DFCF1FF0206A1FBE20681DD9B2
:101D200021BE2268DBD9010FE96EEA6AE9BEEA68E2
:101D300098D9010EDB2AE6D7DF2ADAD7B1C0DEF266
:101D4000B2C0DFF200017F51801102E1000E03D02A
:101D50004ED901E0010E00096CE15DD0560EB96F5D
:101D6000600EE66E000EE66ECEEC19F0E552E5521E
:101D7000040EF3CFDBFF1F6ADB50E76E1F18E8AEDF
:101D800002D0E73402D0E7501F5C38E2040EDBCF0C
:101D900020F03E0EE76E2018E8AE02D0203403D0CB
:101DA000E750D88020542AE3DF6ADFCF1FF0040E0B
:101DB000DB50E76E1F18E8AE02D0E73402D0E750E0
:101DC0001F5C11E2F2D8E9BEEA68600EE926000E57
:101DD000EA22EF50E66EDF28E96EEA6AE9BEEA68B9
:101DE00040D9DF2AE2D7DF28E96EEA6AE9BEEA686D
:101DF000B90EE926020EEA22EF6A02D00201BA6B9E
:101E000000017F51801102E1000E03D0F0D801E003
:101E1000010E00090EE1400EE66EB90EE66E020EEE
:101E2000E66E010EE66E040EC4D8F3CF7FF0F4CF59
:101E300080F0400EE66E790EE66E020EE66EE66A01
:101E4000040EB7D8F3CF7DF0F4CF7EF0070EE15C3F
:101E500002E2E16AE552E16EE552E7CFD9FF1200F6
:101E6000120012001200120081EF18F012001E0E74
:101E7000E66E010ED6D8020ED4D8030ED2D8040EC8
:101E8000E66E6DEC11F0E552E5521200648401013A
:101E9000080E726F070E736F7207000E735B72513C
:101EA0007311FAE164941200D9CFE6FFE1CFD9FFB4
:101EB000FD0EDBCF08F0FE0EDBCF09F0720E081826
:101EC00001E1095033E0E868081802E17F0E0918C3
:101ED0002BE0740E081801E1095024E0750E081873
:101EE00001E109501DE0730E081801E1095016E0E8
:101EF000030E081801E109500FE0020E081801E175
:101F0000095008E0010E081801E1095001E010D065
:101F1000AEDF0FD0ABDF0DD0A7DF0BD0A3DF09D032
:101F20009FDF07D09EDF05D09EDF03D0000001D0E9
:101F300000D0010E00D0E552E7CFD9FF1200030E0A
:101F4000EA02F3CFEAFFE902F3CFE9FFF450EA2611
:101F50008D0EE926000EEA221200030E2002F3CFB6
:101F600020F01F02F3CF1FF0F45020268D0E1F2605
:101F7000000E2022010EDBCF21F0226A120030EC8D
:101F800018F0E552E552E552E552E76E120012EC08
:101F900019F008C01FF009C020F0086809681FC0C8
:101FA0000DF020C00EF038EF19F0DFCFE9FFEA6A3C
:101FB0001200E66E91EC11F01F6E050EE15E1F50EF
:101FC0001200020EE926000EEA22120080D8E55225
:101FD000E7241200010EE926000EEA22EF5012005B
:101FE0001F502124E96E20502220EA6E12007FC08B
:101FF000E9FF80C0EAFFEF50800B1200DFCF1FF037
:102000000C0EE76E1F181200E66EE668E7EC17F09C
:102010001F6E060EE15E1F50E76E030EE7CFDBFF7B
:102020001200E66E6DEC11F0E552E5521E0EE66E02
:1020300012004F6B4FC14EF14FC14DF14FC14CF1EA
:102040004FC14BF14FC14AF11200DBCF1FF0030E1D
:10205000E76E1F181200E66E030EE66E050EE66EC2
:102060001200B90EE926020EEA22E552E750EF6EA1
:1020700012001F6E206A1F501200320E0D6E0E6A83
:102080001200E7CFDBFF010EDB2A1200E80E0D6E17
:10209000030E0E6E120053DFE1EF0FF050DFEAEF98
:1020A0000FF0E66EE668BFEF0FF0E7DF81C008F0E3
:1020B00082C009F01200E1DF85C008F086C009F097
:1020C0001200E4DF8BC008F08CC009F01200010E92
:1020D000DBCFE6FF030EDF02F350120081DFEF508B
:0620E000E66EE6EF0FF0D2
:0A20E600B8EC16F0A0940F015F6B38
:1020F000626A536B97EC16F03EEC16F0DF6ADF5025
:102100001F6E206A140E1F5C000E205810E2DF5074
:10211000040DF3CFE9FFF4CFEAFF000EE926020E2B
:10212000EA22EE6AEE6AEE6AEE6ADF2AE8D7648C8B
:102130000F015C6B6498649C62A607D062960001F4
:10214000D56BDA6BDB6BDC6BF7D70001010EF26F3E
:10215000F36FF46BF56BE26BDF6A050EDF5C11E287
:10216000EA6ADF34BBEC16F0EA22EE6AED6AEA6A4C
:10217000DF34C2EC16F0EA22EE6AED6A07EC16F0E4
:10218000ECD70001080EC76F020EC86F0F01160EC4
:10219000536F0201500E026F020E036F080E016FA3
:1021A000840E006F0001B76BB66BE552D9EF15F0E6
:1021B000B8EC16F00001B6510BE1646A606A3EECBF
:1021C00016F064B602D06486FCD70001010EB66F2B
:1021D000B60508E164BA06D0626A606A6080608809
:1021E000020EB66F6250040B05E06050040B02E073
:1021F000629422DB64B23ED06250010B08E0605072
:10220000010B05E070DF0001040EB66F62906250B2
:10221000100B05E06050100B02E004DB629862AC2A
:1022200008D060AC05D056EC16F0730EC6EC15F075
:10223000629C6250200B04E06050200B01E0E1DA68
:102240006250020B0CE06050020B09E056EC16F0F5
:10225000E6687F0EE66EC9EC16F00F015F6B040EA8
:102260000001E76EB619E8AE02D0E73402D0E750BD
:10227000B65D02E2A1942ED060A62BD0DF6A040ED8
:10228000DF5C27E262A625D063CFE3F00001E351D3
:10229000780BE842E842E842E46F6296E3B504D086
:1022A000E451D0EC16F003D0E451D5EC16F0EA225C
:1022B000EF70E45102E1CCDA0AD0000EE66EE66A75
:1022C000E30EE66E000EE66E720EC6EC15F0DF2A27
:1022D000D6D7A194E552D9EF15F089EC16F0FD0E92
:1022E000DBA403D0E66A46EC16F0FD0EDBA204D0B8
:1022F000010EE66E46EC16F0FE0EDB50206A530F20
:102300001F6E0F0E38EC16F0CAEC15F0FD0EDBCF89
:10231000EFFF020EE15C02E2E16AE552E16ED9EF05
:1023200015F089EC16F0FD0EDB5003E0C1EC15F062
:1023300002D0F8EC15F024EC16F0D9CFE9FFDACF93
:10234000EAFFEE50ED1003E1F36AF46A28D0CAEC1C
:1023500015F0E4EC16F0FB0EDBCFEEFFFC0EDBCF4E
:10236000EDFFCAEC15F0EE52FA0EDBCFEFFF400E98
:10237000DAEC16F0880EE9EC16F0FD0EDB5003E007
:10238000C1EC15F002D0F8EC15F0EA22EF74DECFC4
:102390001FF0DDCF20F01FC0F3FF20C0F4FF020EBE
:1023A000E15C02E2E16AE552E16ED9EF15F089ECF9
:1023B00016F0FE0EDB5003E1A0EC16F009D0FDECA8
:1023C00015F077EC16F0FDEC15F0010F77EC16F038
:1023D000020EE15C02E2E16AE552E16EEAD3E4DB7F
:1023E00064A816D0B1EC16F0400EEE16EE6AEE6A56
:1023F000EE6AB1EC16F0EE7CC4DBEA22EF74400E1C
:102400001F6EB1EC16F01F50EF16B1EC16F0EF7C1A
:10241000D0D30001F25122E1010EF26FF3511EE11F
:10242000010EF36F020ED25D07E1B9DBEE52EF6AE7
:10243000B6DBC80EEF6E1200D20510E1E56BC5DB0E
:10244000EE52080EEF6EC1DB83EC16F0BEDB840E9D
:10245000EF6E010EE56F91DB800EEF6E1200000152
:10246000F46BF56B020ED25D06E1DEEC16F0B2DB2A
:1024700072EC16F010D0D6510201565D0001D75112
:102480000201575904E256C2D6F057C2D7F061D8BC
:1024900086DBA0DB84DBC80EEF6E120089EC16F041
:1024A000000EDE6E020EDD6EA8DB040DF4CF20F010
:1024B000D9CFE9FFDACFEAFFF350EE262050ED2224
:1024C00069DBEF9EFD0EDB5002E192DB01D059DBB0
:1024D000EA22DECFEEFFDDCFEDFF5CDBEF9C5ADBC7
:1024E000040EE926000EEA22EF8C020EE15C02E205
:1024F000E16AE552E16E5DD364980001D5BF0DD06D
:10250000DAAF09D0020ED26FF55101E1A8DF000168
:10251000F36BF26B1200A0EF16F0020150AF0DD07A
:102520000001010ED26FF45101E199DF0001F36B5C
:10253000F26BF1510DE109EF12F00001020ED26FC2
:102540001CDB840EEF6EF36BF26BF15101E161DF86
:102550001200B8EC16F0080EDF6E0001D65D000E1A
:10256000D7590AE2D6C0DFFFD15102E1010E03D0F4
:10257000D10502E1020ED16FDF50206AE850D65D2E
:10258000D66F2050D759D76F0ADBEE52DFCFEFFF5F
:10259000580EDF6F020EE06FD5B10DD0DF5017E09F
:1025A000D3C0F6FFD4C0F7FFD32B000ED42308000E
:1025B000F5503DDBF3D7DF500AE0D3C0E9FFD4C0CC
:1025C000EAFFD32B000ED423EF5031DBF4D7E552D2
:1025D000F0D29FDBFADAEE52EFCFDFFFDFCF1FF052
:1025E0001F500001DB5D000EDC5902E2DBC0DFFFA3
:1025F000DF501F6E206AE850DB5DDB6F2050DC5936
:10260000DC6F010EDB6ADF50F36E010EDBCFF4FFEF
:10261000F350F45C16E2010EDB50EA6A580FE96EE3
:10262000020EEA22EF50E66ED8C0E9FFD9C0EAFFF9
:10263000D82B000ED923E552E750EF6E010EDB2AAE
:10264000E2D7000ED880DB55000EDC550DE2B6DB7C
:10265000C1DABBDAEF50400B03E144DBC80E02D015
:1026600041DB880EEF6E12D088DA840EEF6EDD51FA
:10267000DE1107E005D0DEC0FAFF0001DD51F96E82
:10268000FADF0001DA9FF15101E1C3DE020EE15CE5
:1026900002E2E16AE552E16E8CD26ADB0001D58F7D
:1026A00046DB500EE66EE66AE66A000EE66E020E45
:1026B00097DA648CDF6A050EDF5C02E2A8DAFBD7EA
:1026C000010EE66EE66AE66AB80EE66E000E88DA7D
:1026D000649C0001080EC76F020EC86F000EB96F30
:1026E000020EBA6FB9C0BBF0BC6F52C2B7F0B7519F
:1026F00002E1100E0BD0010EE66EE66AB70EE66E32
:10270000000EE66E010E42DA0001200EB66FE552B1
:1027100050D2800E0201505D38E10001C00ED56F2D
:1027200002015351030A1AE0010A09E0030A2BE1EE
:102730000001DA0ED36F2D0ED46F120E1ED0C4DA44
:10274000810EF6262F0EAADA020E0001B6DAF5CFB8
:10275000D6F0030EB2DAF5CFD7F01200030E525DB9
:102760000FE2B2DA830EF6262F0E98DAD3C0F6FF08
:10277000D4C0F7FF0800F5500001D66FD76B1200E8
:102780000001D56B12000001D56B1200C2DA020104
:10279000586B596B50511F0B020A11E0030A0CE0F1
:1027A000010A1EE10001D58F020158810001E105F7
:1027B00017E10201588314D00001D58F11D0000118
:1027C000D58F020154BF02D0C2DA01D0C5DA3CDA9B
:1027D000CBDA06E0DFD9EF50040B02E0010E586FB0
:1027E0000001D5AF07D0580ED36F020ED46FD5813C
:1027F000020ED66F020EE15C02E2E16AE552E16E82
:10280000D8D10F0153A10CD0E0D9EF50800807E1D7
:10281000C6D9EF50840803E1D8D98C0EEF6E5391DE
:10282000629A12006084629864820001010EE26F75
:1028300011DA750EC6EF15F00001E26B0BDA740EBB
:10284000A5D96492609462A402D06294FCD712006D
:102850008FDAFD0E0001E31539E17E0EE315E84045
:102860007F0B040DF3CFB9F0F4CFBAF0000EB92707
:10287000020EBA23B9C0BBF0BAC0BCF0BB75A5D973
:10288000EF503C0BE842E8420D081EE1DF6A080EFB
:10289000DF5C16E29AD9020EE926000EC2D9EF508B
:1028A000E66EDF50EA6A500FE96E020EEA22E55248
:1028B000E750EF6E8AD988DAEE2AEF22DF2AE7D7CF
:1028C00084D921DA0AD807D023D805D0FD0EE31524
:1028D000040801E12CD8E5526CD10001D16BF16BF9
:1028E000F46BF56BE56BD26B5AD9EF9EC77557D970
:1028F000EF9EC775F7D9EF9ED56BD66BD76BDA6BAA
:10290000DB6BDC6B51D8A6D9030E40D97CEF12F0FB
:10291000020E0001D25D02E1E9EF12F0D26BE55147
:1029200004E12BD98C0EEF6E1200E56B120020DA59
:1029300036D9EF50400B01E0010EDF6E0001C77584
:10294000080EB65D0BE152C25CFF0F015C5103E063
:102950000001100E02D00001040EB66FD20513E183
:102960001ED938D9F6DD020E0001D15D03E117D979
:10297000840E07D0DF5003E112D9C80E02D00FD960
:10298000880EEF6E0FD0DAAF0CD0DD51DE1107E00C
:1029900005D0DEC0FAFF0001DD51F96EFADF00015B
:1029A000DA9FD26BE55205D102015051600BE8422B
:1029B000E842E842E842E842000901E012005151D1
:1029C0000C0A45E00B0A3FE00C0A31E0010A22E064
:1029D0000B0A1EE0020A1CE0030A18E0080A10E0D5
:1029E000010A0CE00F0A08E0030A01E012000001EE
:1029F000D58F080EB66F120089EF13F04DEF13F06C
:102A00000001B70ED36F000ED46F0CD0C6EF13F0D9
:102A100028EF15F054510001D36FD46BB80ED327B3
:102A2000000ED423D581010ED66FD58F1200000180
:102A3000D58F02015451EA6AB80FE96E000EEA22FE
:102A400052C2EFFF120006D9020EC6EF15F01200B7
:102A5000ABD8050EE1260201520510E150511F0BC3
:102A600000090CE10001D58F030E0201515D04E164
:102A70000001010EE16F02D00001E16B0201525131
:102A800001E074D050511F0B020870E154510F0B3C
:102A900000096CE054510F0B040868E3200E00019C
:102AA000B65D64E1D58F020154BF04D050D9CCD8B3
:102AB000D7D803D051D9C8D8D7D8EA22020EEFCF41
:102AC000DBFF09D9010B03E1000EDF9401D0DF84A5
:102AD00054BF02D03CD901D03FD9EA22DECFEEFF6D
:102AE000DDCFEDFF030E515D0CE13ED907E054BF91
:102AF00002D0B6D801D0B8D8EA22EF82840E69D9C4
:102B000035D0DF7431D906E045D8EF9E43D8EF8C3D
:102B100004D902D03FD8EF8CDF74DDD8020B02E17C
:102B200023D90DE0020154BF02D09AD801D09CD81D
:102B3000EA22EF923B0E1F6E3DD9EFD802D03B0E3A
:102B400039D9020154510F0B206A530F1F6E0F0E1B
:102B50002022030E1FC0DBFF040E20C0DBFF030E8C
:102B6000DBCFE9FF040EDBCFEAFFEF90050EE15C5F
:102B700002E2E16AE552E16E1CD020D9C4D872EFBE
:102B800016F0FE0EEA6ADB34BBEF16F0E66EE66A7C
:102B9000C9EF16F0DECFE9FFDDCFEAFF1200C7C0B4
:102BA000E9FFC8C0EAFF1200D9CFE6FFE1CFD9FFA5
:102BB0001200E552E7CFD9FF120054510F0BE96E16
:102BC000EA6AD890E936EA361200B9C0E9FFBAC01D
:102BD000EAFF1200F9D8580EEE6E020EED6E1200EA
:102BE000E66EB4EC19F01F6E050EE15E1F50120088
:102BF000FE0EEA6ADB34C2EF16F0FD0EDB50E8246D
:102C0000216EFE0EDB50040DF35021241200DF5024
:102C1000CCD8EA22EF6ADF50C3D8EA22EF6ADF2A73
:102C20001200EA22EE50EFCFEAFFE96E1200E66EE4
:102C3000DFC0E9FFE0C0EAFFDF2B000EE023E55232
:102C4000E750EF6EDF061200EA22EECFDEFFEDCF97
:102C5000DDFF1200000EE66EE66AE66EE66A12001E
:102C600054510F0BD0EF16F054510F0BD5EF16F057
:102C700020221FC0DEFF20C0DDFF1200160E616E95
:102C80000F019F0E5B6F7B0E606E1200FE0EDBCF9E
:102C9000E6FF4EEC12F0E552E5521200F722090071
:102CA000F5CFD3F00A00F5CFD4F01200010EE66E96
:102CB000E66A000EE66EE66A1200F76AD325F66E43
:102CC000D451F722080012005251F66EF76AD890DC
:102CD000F636F7361200D950020FE96EDACFEAFF66
:102CE000EF501200BBC0E9FFBCC0EAFF1200040DA8
:102CF000F3CF1FF0F4CF20F0000E1F26020EB8DF36
:102D0000840EE9EF16F060D8500EEE6E020EED6EF6
:102D100012004ADF020EE1261200020EE66EE66A9B
:102D2000DECFE6FFDDCFE6FF050EC6EF15F0040EA1
:102D3000E66EE66AE66A540EE66E0F0EF0EF15F0E8
:102D40001CDF8C0EEF6E2BDF840EEF6E120035DF72
:102D5000BD0EE926000E120030DFC70EE926000E78
:102D600012000FDF11EF16F015DFEF50800B12008D
:102D70001BDFE6521200FE0BEA36E96EC70EE926AB
:102D8000000E1200FE0BEA36E96EBD0EE926000EBB
:102D9000120054EC0FF01F6E060EE15E1F50120081
:102DA000EA6AEB0FE96E000E1200EA6AE60FE96EBE
:102DB000000E1200EFDEE850EF16120093DFEE5225
:102DC000080EEF6E72EF16F0020EE926000EEA22F0
:0A2DD0001200E0DEE850EF121200DE
:062DDA00120100020000DE
:102DE0000008EA224A0001000102000109028200F3
:102DF000040100C03209040000010301020009219E
:102E000011010001223400070581030400010904B7
:102E1000010002030000000921110100012231001C
:102E20000705820340000107050203400001090471
:102E300002000203010100092111010001223F00EB
:102E400007058303080001070503030800010904BF
:102E500003000203000000092111010001221D00EE
:102E60000705840340000107050403400001050134
:102E70000902A1010901A100050919012903150091
:102E800025019503750181029501750581010501F3
:102E90000930093109381581257F750895038106A8
:102EA000C0C005010905A101150025013500450136
:102EB0007501950C05091901290C81029504810100
:102EC00005010930093126FF0046FF00750895020B
:102ED0008102C005010906A101050719E029E715CE
:102EE00000250175019508810295017508810395FA
:102EF00005750105081901290591029501750391D0
:102F00000395067508150025E70507190029E781CF
:102F100000C00600FF0901A1011901294015002682
:102F2000FF00750895408100190129409100C004F7
:102F30000309042603420069007400200054007253
:102F40000061006400650020004F006E00650020F5
:102F5000004C00540044002E002803520045005647
:102F60000049005600450020005500530042002053
:102F7000004400650062006F0075006E006300652C
:092F800000EC2D2F2F332F592FE7
:062F8A00A1D8FD0EDB5092
:102F9000A96EA66AA680A8509FD099D8E652DF6A8B
:102FA000A6B20ED0FD0EDB50A96EFC0EDB50A86E53
:102FB000040EA66E550EA76EAA0EA76EA68202D0AC
:102FC000010EDF6EA6B2FED7DF50E55285D07FD866
:102FD000050EE126010EDF6EDB6A87D8EF6A020E6E
:102FE000DB6AFC0EDB50F36E020E7AD82FE2010E84
:102FF000DB6A020E81D8E76E040EE7CFDBFF020E1C
:10300000DB28E76E030EE7CFDBFFFC0EDB50F36E31
:10301000030E66D80CE2030E6FD8F36E040EDB507D
:10302000F35C02E1010EDB2A030EDB2AEED7FB0E76
:10303000DB04F36E010E54D806E357D8040EDBCF41
:10304000EFFFDF6A03D0020EDB2ACBD7DF501F6E03
:10305000050EE15C02E2E16AE552E16E1F503CD0F0
:1030600036D8020EE126DF6A010EDB6AFB0EDB506A
:10307000F36E010E35D810E2FC0EDBCFE6FF010E39
:1030800015D88BDFE552E552E552000902E0010E4A
:10309000DF6E010EDB2AEAD7DF501F6E020EE15C05
:1030A00002E2E16AE552E16E1F5016D0DB50E76E96
:1030B000FD0EDBCF1FF0FE0EDBCF20F0E7501F260A
:1030C000000E20221FC0E6FF20C0E6FF1200D9CF6D
:1030D000E6FFE1CFD9FF1200E552E7CFD9FF12009A
:1030E000DBCFF4FFF350F45C1200F90EDBCFE9FF05
:1030F000FA0EDBCFEAFF1200D9DF47DFE552E552D7
:023100001200BB
:0E310200020150511F0B010801E01200060EE1
:10311000515D4EE15351230A4BE0010A21E0030ABD
:1031200047E15451030A15E0010A0EE0030A07E0E3
:10313000010A3EE10001FE0ED36F2D0E0ED00001FC
:10314000170ED36F2E0E09D00001370ED36F2E0E3F
:1031500004D00001570ED36F2E0ED46F090E24D069
:103160005451030A1BE0010A12E0030A09E0010AB4
:103170001FE100016E0ED36F2E0ED46F340E14D0EB
:103180000001A20ED36F2E0ED46F310E0DD00001B0
:10319000D30ED36F2E0ED46F3F0E06D00001120E49
:1031A000D36F2F0ED46F1D0ED66FD76BC00ED56F99
:1031B00002015051600BE842E842E842E842E8422E
:1031C000010801E0120051510B0A26E0080A19E03B
:1031D000090A11E0080A05E00B0A23E0080A21E0C9
:1031E00012000001740ED36F010ED46F010ED66F62
:1031F000D76BC10E0FD00001800ED56F53C274F192
:1032000012000001750ED36F010ED46F010ED66F40
:10321000D76B810ED56F12000001800ED56F52C2A0
:0432200075F1120032
:0C322400006A0EAE1BEF19F00D6C0E1EC0
:10323000E86A0E22001E09AE23EF19F0086C091E81
:10324000E86A0922001EDCEC19F009BE33EF19F020
:1032500000AE000C086C091EE86A0922046C051E09
:10326000E86A0522000C00BE2AEF19F00188FF0C65
:1032700009C013F008C012F008500D02F4CF07F097
:10328000F3CF06F009500E02F4CF09F0F3CF08F0A7
:103290000D02F3500726F4500822E86A0922125062
:1032A0000E02F3500726F4500822E86A09220EAEF7
:1032B0005EEF19F01250085E1350095A13AE000C5D
:0A32C0000D50085E0E50095A000C74
:0632CA001E0EF66E100E50
:1032D000F76E000EF86E00010900F550FB6F090053
:1032E000F550FC6F03E1FB6701D03DD00900F550BC
:1032F000F66F0900F550F76F0900F550F86F0900F7
:103300000900F550E96E0900F550EA6E0900090060
:103310000900F550F96F0900F550FA6F090009002E
:10332000F6CFFDF0F7CFFEF0F8CFFFF0F6C0F6FFD6
:10333000F7C0F7FFF8C0F8FF0001F95302E1FA53B4
:1033400007E00900F550EE6EF907F8E2FA07F9D741
:10335000FDC0F6FFFEC0F7FFFFC0F8FF0001FB074E
:08336000000EFC5BBFD7120058
:08336800FE0EE3CFE9FFFF0EAA
:10337000E3CFEAFFE9CFF3FFEACFF4FFFB0EE35020
:1033800003E1FC0EE35009E0FB0EE30602E2FC0E53
:10339000E306FD0EE350EE6EF1D71200FE0EE3CF12
:1033A000E9FFFF0EE3CFEAFFF36AF46AEE5203E0AF
:0833B000F34AF42AFBD71200D6
:0833B800056A046A100EE76EBD
:1033C000D89008360936043605360D50045C0E5088
:1033D000055805E30D50045E0E50055A082AE72EE5
:0433E000F0D7120010
:0C33E400000EF36E00EE00F0030E01D8A6
:1033F0001200EA6002D0EE6AFCD7F350E9601200D6
:04340000EE6AFCD79D
:0C34040011EE00F021EE00F0F86A019CCF
:1034100065EC19F003EC08F086EC09F0FBD712001C
:103420004465626F756E636520312E302E302062E8
:1034300061736564207665722030303700000000CB
:10344000000000000000000000000000000000007C
:10345000000000000000000000000000000000006C
:10346000000000000000000000000000000000005C
:0634700000010100000054
:020000040030CA
:0100000000FF
:0100010032CC
:0100020001FC
:010003001EDE
:0100050000FA
:010006008178
:0100080003F4
:01000900C036
:01000A0003F2
:01000B00E014
:01000C0003F0
:01000D0040B2
:00000001FF
