:020000040000FA
:0600000077EF1AF0120078
:0600080004EF08F01200F5
:060018000CEF08F01200DD
:0610000077EF1AF0120068
:021006001200D6
:0610080016EF08F01200D3
:061018001DEF08F01200BC
:02101E000100CF
:0C1020000A3500006000000046000000DF
:04102C00DACFE4FF34
:10103000E652E552E5CFDAFF1100D8CFE4FFE0CF6A
:10104000E4FFE46EDACFE4FFE2CFDAFFE9CFE4FFBA
:10105000EACFE4FFF6CFE4FFF7CFE4FFF3CFE4FFFE
:10106000F4CFE4FFFACFE4FF00EE00F0140EE80442
:1010700003E3EECFE4FFFBD7E652D9CFE6FFE1CFA3
:10108000D9FF030EE126F2A480D1F2940000000003
:101090000000000000000000000000000000000050
:1010A0000000000000000000000000000000000040
:1010B0000000000000000000000000000000000030
:1010C000000000000000176A186A010E196E000186
:1010D000A1511D6E1E6A770E086E010E096E1DC0AD
:1010E0000DF01EC00EF0ADEC19F006C01AF007C0EE
:1010F0001BF01C6A1BBE1C681A50175C146E1B5038
:101100001858156E1C501958166E090E1426000E2C
:101110001522000E162214C0DEFF15C0DDFFDECF43
:1011200014F0DDCF15F015C014F0156A1450D76E09
:10113000DF50D66E8250010B010AF36EF3CF1EF022
:101140008250020B020A01E0010EF36EF3CF1DF094
:101150008250040B040A01E0010EF36EF3CF1CF081
:101160008150100B100A01E0010E000EF3CF1BF0AE
:101170008150200B200A01E0010E800DF3CF1AF000
:101180008150400B400A01E0010E400DF3CF19F0F1
:101190008150800B800A01E0010E200DF3CF18F082
:1011A0008250800B800A01E0010E100DF3CF17F082
:1011B0008250400B400A01E0010E080DF3CF16F0FB
:1011C0008250080B080A01E0010E040DF3CF15F060
:1011D0008250100B100A01E0010EE824146E8250B8
:1011E000200B200A01E0010E141015101610171024
:1011F000181019101A101B101C101D101E100101C0
:10120000586F596B800B01E05969020EDB6A020EC0
:10121000DBCF14F00C0EE76E1418E8AE02D0E73402
:1012200002D0E750145C01E3B0D0010EF36E020E61
:10123000DB5004E0D890F336E806FCE1F350166E7C
:10124000176A16BE17680101010158511614146E71
:101250000101010159511714156E1450151002E0C7
:10126000010E01D0000E00094EE0020EDBCFE9FFB7
:10127000EA6AE9BEEA68D890E936EA365A0EE92603
:10128000010EEA22010EE926000EEA22EFCF14F049
:101290000001A251145C12E2020EDBCFE9FFEA6A00
:1012A000E9BEEA68D890E936EA365A0EE926010E18
:1012B000EA22010EE926000EEA22EF2A020EDBCF17
:1012C000E9FFEA6AE9BEEA68D890E936EA365A0EDA
:1012D000E926010EEA22010EE926000EEA22EF506D
:1012E0000001A25D0FE1020EDBCFE9FFEA6AE9BE71
:1012F000EA68D890E936EA365A0EE926010EEA2263
:10130000A2C0EFFF3FD0020EDBCFE9FFEA6AE9BEE1
:10131000EA68D890E936EA365A0EE926010EEA2242
:10132000EF5000080EE2020EDBCFE9FFEA6AE9BEE9
:10133000EA68D890E936EA365A0EE926010EEA2222
:10134000EF06020EDBCFE9FFEA6AE9BEEA68D89051
:10135000E936EA365A0EE926010EEA22EF5012E18A
:10136000020EDBCFE9FFEA6AE9BEEA68D890E93607
:10137000EA365A0EE926010EEA22010EE926000E8F
:10138000EA22EF6A020EDB2A42D7030EE15C02E298
:10139000E16AE552E16EE552E7CFD9FFE55200EE92
:1013A00013F0140EE80403E3E5CFEDFFFBD7E5CF20
:1013B000FAFFE5CFF4FFE5CFF3FFE5CFF7FFE5CF89
:1013C000F6FFE5CFEAFFE5CFE9FFE5CFDAFFE5502D
:1013D000E5CFE0FFE5CFD8FF100004D84DEC11F0C9
:1013E00069D9FCD70F0EC11202D8E8EF10F0D9CF9F
:1013F000E6FFE1CFD9FF060EE126010EF36E020EE5
:10140000F3CFDBFFF00E936E94688B687E6A7F6A81
:10141000F19E7888788A788C788E0101506B516BB8
:10142000526B536B546B556B566B576B00016D6B66
:101430006E6B6F6B706B02016C6B6CC26BF26CC28B
:101440006AF26CC269F26F6B6FC26EF26FC26DF2BC
:101450000201686B68C267F268C266F268C265F230
:1014600068C264F268C263F268C262F268C261F282
:101470000101436B43C142F143C141F143C140F11A
:1014800089EC10F04FC149F14FC148F1446B456BF5
:10149000800E466F476FDF6A66EC10F0E8AE02D050
:1014A000E73402D0E7501F5C56E240EC10F0E9BE92
:1014B000EA6879EC10F0EF6A40EC10F0E9BEEA68F7
:1014C00079EC10F0E3EC10F0EF6A010EDB6A95ECBA
:1014D00010F0E8AE02D0E73402D0E7501F5C39E2EA
:1014E000DFCF21F0226A21BE2268030E2202F3CF51
:1014F00022F02102F3CF21F0F45022267D0E212686
:10150000000E2222010EDBCF23F0246A23BE2468C2
:10151000215023241F6E22502420206E1FC0E6FF7E
:101520009BEC10F051EC10F0050DF3CF25F0266A7E
:1015300025BE266825C0E6FF26C0E6FF5CEC18F055
:10154000276E060EE15E2750E76E030EB1EC10F039
:10155000BED7DF2AA1D7A10EE66E000E9BEC10F0DD
:10156000B40E6CEC10F0A20EE66E000E9BEC10F0C8
:10157000B90E6CEC10F000017D5159E07D0557E08B
:10158000020E7D5D54E0030E7D5D51E0DF6A66EC86
:1015900010F0E8AE02D0E73402D0E7501F5C2EE234
:1015A000010EDB6A95EC10F0E8AE02D0E73402D011
:1015B000E7501F5C21E2DFCF1FF0206A1FBE2068CA
:1015C00018EC10F021BE226858EC10F0EF6A050EFE
:1015D000E66EE66A51EC10F0050DF3CF1FF0206ABD
:1015E0001FBE20681FC0E6FF20C0E6FF2AEC10F0F7
:1015F000030EB1EC10F0D6D7DF2AC9D700010A0ECE
:10160000A16F030EA26F050EE66E0A0EE66EB40E13
:10161000C1EC10F0030EE7CFDBFF050EE66E030E04
:10162000E66EB90EC1EC10F0030EE7CFDBFF840EBF
:10163000D56E226A236A010E246E0001A151286E24
:10164000296A770E086E010E096EA1C00DF029C03F
:101650000EF0ADEC19F006C025F007C026F0276AA1
:1016600026BE27682550225C1F6E26502358206E08
:1016700027502458040E1FC0DBFF050E20C0DBFFDF
:10168000040E050EDBCF20F020C01FF02050D76ED7
:10169000040EDB50D66ED08EF194F28AF28CF28E6C
:1016A000060EE15C02E2E16AE552E16EE552E7CF47
:1016B000D9FF1200D9CFE6FFE1CFD9FF070EE1260F
:1016C000200E0001E76EA619E8AE02D0E73402D082
:1016D000E750A65D02E291EF0FF06450020B02E0CA
:1016E00091EF0FF0020EF36E030EF3CFDBFF01015B
:1016F000726B736B746B756B766B776B786B796BE6
:101700007A6B7B6BDF6A66EC10F0E8AE02D0E734F0
:1017100002D0E7501F5C01E312D140EC10F0E9BEAB
:10172000EA6879EC10F055EC10F00001A25D01E0E0
:1017300004D140EC10F0E9BEEA680AEC10F0EF507A
:10174000030A01E1C2D0010A01E198D0030A01E0D5
:10175000F4D040EC10F0E9BEEA68BEEC10F0090AE3
:1017600069E0010A5BE00F0A4DE0010A40E0030A6C
:1017700030E0010A20E0070A10E0010A0BE0030A4A
:1017800006E0010A01E076D00101408173D0010139
:10179000408370D0010140856DD00101010E726F50
:1017A000785168E140EC10F0E9BEEA68BBEC10F05B
:1017B000EFCF78F15FD00101010E736F79515AE1DB
:1017C00040EC10F0E9BEEA68BBEC10F0EFCF79F125
:1017D00051D00101010E746F7A514CE140EC10F0D0
:1017E000E9BEEA68BBEC10F0EFCF7AF143D001011B
:1017F000010E756F7B513EE140EC10F0E9AE36D042
:10180000EA6834D00101010E766F40EC10F0E9BEB9
:10181000EA68BBEC10F0EFCF7CF12CD00101010E97
:10182000776F40EC10F0E9BEEA68BBEC10F0EFCF48
:101830007DF120D040EC10F0E9BEEA68BBEC10F07E
:10184000EFCF78F140EC10F0E9BEEA68BBEC10F0A5
:10185000EFCF79F140EC10F0E9BEEA68BBEC10F094
:10186000EFCF7AF140EC10F0E9BEEA68BBEC10F083
:10187000EFCF7BF10001050EA46F5FD0030EDB50AC
:1018800008081FE040EC10F0E9BEEA68BBEC10F07D
:10189000EF500101481340EC10F0E9BEEA68BEECDD
:1018A00010F0E66E030EDBCFE9FFEA6AE9BEEA68F4
:1018B000480EE926010EEA22E552E750EF6E030ECC
:1018C000DB2A0001050EA56F38D0DADBE9BEEA6835
:1018D000BEEC10F0010B02E00101476BD1DBE9BE69
:1018E000EA68BEEC10F0020B02E001014769C8DBB8
:1018F000E9BEEA68BEEC10F0040B02E00101466BA1
:10190000BFDBE9BEEA68BEEC10F0080B02E00101A3
:101910004669B6DBE9BEEA68BBEC10F0EF500101A6
:101920004413AEDBE9BEEA6875DBE3EC10F0EF3898
:101930000F0B45130001050EA36FDF2AE4D601014A
:101940005051511102E1000E08D050C1E9FF51C1C0
:10195000EAFFEF50800B01E0010E000901E013D116
:10196000720520E17851A9EC10F000017127205098
:10197000722372351AE271513208000E725515E267
:1019800071C01FF072C020F0C5EC10F06BDB06C018
:1019900042F1C5EC10F087EC19F004C071F005C0FD
:1019A00072F003D00001716B726B0101730527E1C6
:1019B0007951CFDB0001732720507423743522E264
:1019C00073513208000E74551DE2320E1F6E206AEC
:1019D00073C008F074C009F00D6E20C00EF087ECE3
:1019E00019F008C042F1B9DB73C008F074C009F007
:1019F00087EC19F004C073F005C074F003D0000147
:101A0000736B746B010174051DE17A51A2DB000157
:101A1000752720507623763518E275513208000E6E
:101A2000765513E275C01FF076C020F0B4DB1ADBE8
:101A300006C041F1B0DB87EC19F004C075F005C0B9
:101A400076F003D00001756B766B0101750527E117
:101A50007B517FDB0001772720507823783522E205
:101A600077513208000E78551DE2320E1F6E206A43
:101A700077C008F078C009F00D6E20C00EF087EC3A
:101A800019F008C041F169DB77C008F078C009F0AF
:101A900087EC19F004C077F005C078F003D000019E
:101AA000776B786B0101760528E17C5152DB0001F0
:101AB000792720507A237A3523E27951E808030EFA
:101AC0007A551EE2E80E1F6E030E206E79C008F0F4
:101AD0007AC009F01FC00DF00E6E87EC19F008C037
:101AE00043F144DB79C008F07AC009F087EC19F0C3
:101AF00004C079F005C07AF003D00001796B7A6BED
:101B0000010177051DE17D5124DB00017B27205079
:101B10007C237C3518E27B51E808030E7C5513E2E8
:101B20007BC01FF07CC020F03CDB9CDA06C043F198
:101B300038DB87EC19F004C07BF005C07CF003D0E3
:101B400000017B6B7C6B40C16DF241C16EF242C102
:101B50006FF243C170F20101406B416B426B436B0A
:101B60000001A45100080FE2040EE66E6D0EE66E51
:101B7000020EE66E010EE66E87DAF3CF50F1F4CF77
:101B800051F10001A40701015451551102E1000E69
:101B900008D054C1E9FF55C1EAFFEF50800B01E0C6
:101BA000010E000927E148C161F249C162F24AC150
:101BB00063F24BC164F24CC165F24DC166F24EC195
:101BC00067F24FC168F2A5DA4FC148F10001A55193
:101BD000000810E2080EE66E610EE66E020EE66E7A
:101BE000010EE66E030E50DAF3CF54F1F4CF55F147
:101BF0000001A50701015251531102E1000E08D066
:101C000052C1E9FF53C1EAFFEF50800B01E0010E22
:101C1000000921E144C169F245C16AF246C16BF293
:101C200047C16CF2446B456B800E466F476F0001F5
:101C3000A351000810E2040EE66E690EE66E020E75
:101C4000E66E010EE66E020E1FDAF3CF52F1F4CF0C
:101C500053F10001A30700016D516E1102E1000E66
:101C600008D06DC0E9FF6EC0EAFFEF50800B01E0C5
:101C7000010E000901E055D102017951560A01E136
:101C8000D8D0610A01E18FD0B60A01E176D0010A0D
:101C900001E03AD1050E7A5D01E036D1AA0E7B5DF6
:101CA00001E032D1550E7C5D01E02ED10A0E7D5D42
:101CB00001E02AD10F0E7E5D01E026D1DF6A06DA4F
:101CC000E8AE02D0E73402D0E7501F5C3FE2010EDD
:101CD000DB6A2BDAE8AE02D0E73402D0E7501F5CB3
:101CE00033E265DA060FE552E724E96EEA6AE9BEF7
:101CF000EA68790EE926020EEA22EF50E66EDFCF9F
:101D00001FF0206A1FBE206893D921BE2268D0D957
:101D1000E552E750EF6E050EE66EDFCF1FF0206A4A
:101D20001FBE206885D921BE226848DA050DF3CF91
:101D300023F0246A23BE246823C0E6FF24C0E6FF04
:101D400089D9060E0EDAC5D7DF2AB9D7A3C2A1F00A
:101D5000A4C2A2F0050EE66EA3C2E6FFB40E11DA2D
:101D6000060EE7CFDBFF050EE66EA2C0E6FFB90E5A
:101D700008DA060EE7CFDBFFC7D0810EB96F59C175
:101D80001FF0206A59C1BAF258C1BBF200016F516D
:101D9000701102E1000E03D092D901E0010E00099A
:101DA00001E0B2D0A3D000016F51701102E1000E2A
:101DB00003D085D901E0010E000901E0A5D00201A0
:101DC000370EB96FDF6A82D9E8AE02D0E73402D0AD
:101DD000E7501F5C1EE2010EDB6AA7D9E8AE02D015
:101DE000E73402D0E7501F5C12E2DFCF1FF0206A19
:101DF0001FBE20681DD921BE2268E0D9010FE96EFF
:101E0000EA6AE9BEEA689DD9010EDB2AE6D7DF2A35
:101E1000DAD7A1C0DEF2A2C0DFF200016F5170116B
:101E200002E1000E03D04BD901E0010E00096CE184
:101E30005DD0560EB96F600EE66E000EE66E43EC96
:101E40001AF0E552E552040EF3CFDBFF1F6ADB50B8
:101E5000E76E1F18E8AE02D0E73402D0E7501F5CEF
:101E600038E2040EDBCF20F03E0EE76E2018E8AE1D
:101E700002D0203403D0E750D88020542AE3DF6A10
:101E8000DFCF1FF0040EDB50E76E1F18E8AE02D064
:101E9000E73402D0E7501F5C11E2F2D8E9BEEA68ED
:101EA000600EE926000EEA22EF50E66EDF28E96EAA
:101EB000EA6AE9BEEA6845D9DF2AE2D7DF28E96E97
:101EC000EA6AE9BEEA68B90EE926020EEA22EF6A7A
:101ED00002D00201BA6B00016F51701102E1000ED5
:101EE00003D0EDD801E0010E00090EE1400EE66ED0
:101EF000B90EE66E020EE66E010EE66E040EC4D852
:101F0000F3CF6FF0F4CF70F0400EE66E790EE66E10
:101F1000020EE66EE66A040EB7D8F3CF6DF0F4CF8A
:101F20006EF0070EE15C02E2E16AE552E16EE55215
:101F3000E7CFD9FF12001200120012001200F6EFD4
:101F400018F012001E0EE66E010EDBD8020ED9D874
:101F5000030ED7D8040EE66EE2EC11F0E552E5521E
:101F6000120064840101080E7E6F070E7F6F7E07EA
:101F7000000E7F5B7E517F11FAE164941200D9CF8D
:101F8000E6FFE1CFD9FFFD0EDBCF08F0FE0EDBCF81
:101F900009F0720E081801E1095033E0E8680818EA
:101FA00002E17F0E09182BE0740E081801E10950B8
:101FB00024E0750E081801E109501DE0730E0818A1
:101FC00001E1095016E0030E081801E109500FE085
:101FD000020E081801E1095008E0010E081801E19D
:101FE000095001E010D0AEDF0FD0ABDF0DD0A7DF7E
:101FF0000BD0A3DF09D09FDF07D09EDF05D09EDF87
:1020000003D0000001D000D0010E00D0E552E7CF90
:10201000D9FF1200030EEA02F3CFEAFFE902F3CF81
:10202000E9FFF450EA267D0EE926000EEA221200AE
:10203000030E2002F3CF20F01F02F3CF1FF0F45065
:1020400020267D0E1F26000E2022010EDBCF21F060
:10205000226A1200A5EC18F0E552E552E552E5526D
:10206000E76E120087EC19F008C01FF009C020F0DD
:10207000086809681FC00DF020C00EF0ADEF19F020
:10208000DFCFE9FFEA6A1200E66E06EC12F01F6E7F
:10209000050EE15E1F501200020EE926000EEA2234
:1020A000120085D8E552E72412008DD8EF501200B7
:1020B0001F502124E96E20502220EA6E12006FC0CA
:1020C000E9FF70C0EAFFEF50800B1200DFCF1FF076
:1020D0000C0EE76E1F181200E66EE6685CEC18F056
:1020E0001F6E060EE15E1F50E76E030EE7CFDBFFAB
:1020F0001200D890E936EA365A0EE926010EEA2295
:102100001200E66EE2EC11F0E552E5521E0EE66EAC
:1021100012004F6B4FC14EF14FC14DF14FC14CF109
:102120004FC14BF14FC14AF11200DBCF1FF0030E3C
:10213000E76E1F181200E66E030EE66E050EE66EE1
:102140001200B90EE926020EEA22E552E750EF6EC0
:1021500012001F6E206A1F501200320E0D6E0E6AA2
:102160001200E7CFDBFF010EDB2A1200E80E0D6E36
:10217000030E0E6E12004EDF4CEF10F04BDF55EFEA
:1021800010F0E66EE6682AEF10F0E7DF71C008F0A5
:1021900072C009F01200E1DF75C008F076C009F0E6
:1021A0001200E4DF7BC008F07CC009F01200010ED1
:1021B000DBCFE6FF030EDF02F350120079DFEF50B2
:1021C000E66E51EF10F0010EE926000EEA22120031
:1021D0002DEC17F0A0940F015F6B626A536B0CEC4F
:1021E00017F0B3EC16F0DF6ADF501F6E206A140E92
:1021F0001F5C000E205810E2DF50040DF3CFE9FF02
:10220000F4CFEAFF000EE926020EEA22EE6AEE6A39
:10221000EE6AEE6ADF2AE8D7648C0F015C6B649883
:10222000649C62A607D062960001C56BCA6BCB6B3B
:10223000CC6BF7D70001010EE26FE36FE46BE56B47
:10224000D26BDF6A050EDF5C11E2EA6ADF3430EC44
:1022500017F0EA22EE6AED6AEA6ADF3437EC17F02B
:10226000EA22EE6AED6A7CEC16F0ECD70001080E6B
:10227000B76F020EB86F0F01160E536F0201500EAA
:10228000026F020E036F080E016F840E006F0001D3
:10229000A76BA66BE5524EEF16F02DEC17F0000180
:1022A000A6510BE1646A606AB3EC16F064B602D022
:1022B0006486FCD70001010EA66FA60508E164BA8A
:1022C00006D0626A606A60806088020EA66F625003
:1022D000040B05E06050040B02E0629422DB64B260
:1022E0003ED06250010B08E06050010B05E070DF4A
:1022F0000001040EA66F62906250100B05E0605062
:10230000100B02E004DB629862AC08D060AC05D030
:10231000CBEC16F0730E3BEC16F0629C6250200B77
:1023200004E06050200B01E0E1DA6250020B0CE0A7
:102330006050020B09E0CBEC16F0E6687F0EE66E0B
:102340003EEC17F00F015F6B040E0001E76EA6195B
:10235000E8AE02D0E73402D0E750A65D02E2A194D5
:102360002ED060A62BD0DF6A040EDF5C27E262A6C7
:1023700025D063CFD3F00001D351780BE842E84277
:10238000E842D46F6296D3B504D0D45145EC17F02F
:1023900003D0D4514AEC17F0EA22EF70D45102E195
:1023A000CCDA0AD0000EE66EE66AD30EE66E000EB8
:1023B000E66E720E3BEC16F0DF2AD6D7A194E552FA
:1023C0004EEF16F0FEEC16F0FD0EDBA403D0E66A2D
:1023D000BBEC16F0FD0EDBA204D0010EE66EBBECEA
:1023E00016F0FE0EDB50206A530F1F6E0F0EADEC81
:1023F00016F03FEC16F0FD0EDBCFEFFF020EE15CB6
:1024000002E2E16AE552E16E4EEF16F0FEEC16F0E4
:10241000FD0EDB5003E036EC16F002D06DEC16F04A
:1024200099EC16F0D9CFE9FFDACFEAFFEE50ED10C4
:1024300003E1F36AF46A28D03FEC16F059EC17F088
:10244000FB0EDBCFEEFFFC0EDBCFEDFF3FEC16F01B
:10245000EE52FA0EDBCFEFFF400E4FEC17F0880E76
:102460005EEC17F0FD0EDB5003E036EC16F002D008
:102470006DEC16F0EA22EF74DECF1FF0DDCF20F016
:102480001FC0F3FF20C0F4FF020EE15C02E2E16A2C
:10249000E552E16E4EEF16F0FEEC16F0FE0EDB504C
:1024A00003E115EC17F009D072EC16F0ECEC16F025
:1024B00072EC16F0010FECEC16F0020EE15C02E299
:1024C000E16AE552E16EEAD3E4DB64A816D026ECBB
:1024D00017F0400EEE16EE6AEE6AEE6A26EC17F082
:1024E000EE7CC4DBEA22EF74400E1F6E26EC17F080
:1024F0001F50EF1626EC17F0EF7CD0D30001E2510D
:1025000022E1010EE26FE3511EE1010EE36F020EC4
:10251000C25D07E1B9DBEE52EF6AB6DBC80EEF6EC3
:102520001200C20510E1D56BC5DBEE52080EEF6E4E
:10253000C1DBF8EC16F0BEDB840EEF6E010ED56F3A
:1025400091DB800EEF6E12000001E46BE56B020E72
:10255000C25D06E153EC17F0B2DBE7EC16F010D0E9
:10256000C6510201565D0001C7510201575904E2EC
:1025700056C2C6F057C2C7F061D886DBA0DB84DB49
:10258000C80EEF6E1200FEEC16F0000EDE6E020EAC
:10259000DD6EA8DB040DF4CF20F0D9CFE9FFDACF50
:1025A000EAFFF350EE262050ED2269DBEF9EFD0E90
:1025B000DB5002E192DB01D059DBEA22DECFEEFFF5
:1025C000DDCFEDFF5CDBEF9C5ADB040EE926000E4D
:1025D000EA22EF8C020EE15C02E2E16AE552E16E72
:1025E0005DD364980001C5BF0DD0CAAF09D0020EFB
:1025F000C26FE55101E1A8DF0001E36BE26B12005D
:1026000015EF17F0020150AF0DD00001010EC26F9F
:10261000E45101E199DF0001E36BE26BE1510DE16F
:102620007EEF12F00001020EC26F1CDB840EEF6E13
:10263000E36BE26BE15101E161DF12002DEC17F079
:10264000080EDF6E0001C65D000EC7590AE2C6C063
:10265000DFFFC15102E1010E03D0C10502E1020E0C
:10266000C16FDF50206AE850C65DC66F2050C75961
:10267000C76F0ADBEE52DFCFEFFF580ECF6F020EAF
:10268000D06FC5B10DD0DF5017E0C3C0F6FFC4C096
:10269000F7FFC32B000EC4230800F5503DDBF3D732
:1026A000DF500AE0C3C0E9FFC4C0EAFFC32B000E3D
:1026B000C423EF5031DBF4D7E552F0D29FDBFADAD6
:1026C000EE52EFCFDFFFDFCF1FF01F500001CB5DD9
:1026D000000ECC5902E2CBC0DFFFDF501F6E206A34
:1026E000E850CB5DCB6F2050CC59CC6F010EDB6A2C
:1026F000DF50F36E010EDBCFF4FFF350F45C16E213
:10270000010EDB50EA6A580FE96E020EEA22EF5022
:10271000E66EC8C0E9FFC9C0EAFFC82B000EC92396
:10272000E552E750EF6E010EDB2AE2D7000ED880AB
:10273000CB55000ECC550DE2B6DBC1DABBDAEF505B
:10274000400B03E144DBC80E02D041DB880EEF6E84
:1027500012D088DA840EEF6ECD51CE1107E005D08D
:10276000CEC0FAFF0001CD51F96EFADF0001CA9F19
:10277000E15101E1C3DE020EE15C02E2E16AE552F1
:10278000E16E8CD26ADB0001C58F46DB500EE66E2F
:10279000E66AE66A000EE66E020E97DA648CDF6A7D
:1027A000050EDF5C02E2A8DAFBD7010EE66EE66AF0
:1027B000E66AA80EE66E000E88DA649C0001080E38
:1027C000B76F020EB86F000EA96F020EAA6FA9C0F4
:1027D000ABF0AC6F52C2A7F0A75102E1100E0BD0C4
:1027E000010EE66EE66AA70EE66E000EE66E010EBC
:1027F00042DA0001200EA66FE55250D2800E02018F
:10280000505D38E10001C00EC56F02015351030A4B
:102810001AE0010A09E0030A2BE10001C40EC36FAC
:102820002E0EC46F120E1ED0C4DA6B0EF626300EBA
:10283000AADA020E0001B6DAF5CFC6F0030EB2DA5C
:10284000F5CFC7F01200030E525D0FE2B2DA6D0E43
:10285000F626300E98DAC3C0F6FFC4C0F7FF0800B2
:10286000F5500001C66FC76B12000001C56B120066
:102870000001C56B1200C2DA0201586B596B50514E
:102880001F0B020A11E0030A0CE0010A1EE100011D
:10289000C58F020158810001D10517E1020158835B
:1028A00014D00001C58F11D00001C58F020154BFA3
:1028B00002D0C2DA01D0C5DA3CDACBDA06E0DFD9E1
:1028C000EF50040B02E0010E586F0001C5AF07D0B6
:1028D000580EC36F020EC46FC581020EC66F020E82
:1028E000E15C02E2E16AE552E16ED8D10F0153A149
:1028F0000CD0E0D9EF50800807E1C6D9EF5084082A
:1029000003E1D8D98C0EEF6E5391629A1200608465
:10291000629864820001010ED26F11DA750E3BEFEE
:1029200016F00001D26B0BDA740EA5D96492609494
:1029300062A402D06294FCD712008FDAFD0E00016F
:10294000D31539E17E0ED315E8407F0B040DF3CF8C
:10295000A9F0F4CFAAF0000EA927020EAA23A9C05D
:10296000ABF0AAC0ACF0AB75A5D9EF503C0BE84278
:10297000E8420D081EE1DF6A080EDF5C16E29AD914
:10298000020EE926000EC2D9EF50E66EDF50EA6A69
:10299000500FE96E020EEA22E552E750EF6E8AD937
:1029A00088DAEE2AEF22DF2AE7D784D921DA0AD89B
:1029B00007D023D805D0FD0ED315040801E12CD88B
:1029C000E5526CD10001C16BE16BE46BE56BD56B3B
:1029D000C26B5AD9EF9EB77557D9EF9EB775F7D925
:1029E000EF9EC56BC66BC76BCA6BCB6BCC6B51D8FC
:1029F000A6D9030E40D9F1EF12F0020E0001C25D1C
:102A000002E15EEF13F0C26BD55104E12BD98C0EBD
:102A1000EF6E1200D56B120020DA36D9EF50400B62
:102A200001E0010EDF6E0001B775080EA65D0BE137
:102A300052C25CFF0F015C5103E00001100E02D096
:102A40000001040EA66FC20513E11ED938D9F6DDC8
:102A5000020E0001C15D03E117D9840E07D0DF50DB
:102A600003E112D9C80E02D00FD9880EEF6E0FD035
:102A7000CAAF0CD0CD51CE1107E005D0CEC0FAFFC1
:102A80000001CD51F96EFADF0001CA9FC26BE55219
:102A900005D102015051600BE842E842E842E842A9
:102AA000E842000901E0120051510C0A45E00B0A0E
:102AB0003FE00C0A31E0010A22E00B0A1EE0020AA4
:102AC0001CE0030A18E0080A10E0010A0CE00F0AF3
:102AD00008E0030A01E012000001C58F080EA66F8E
:102AE0001200FEEF13F0C2EF13F00001A70EC36F48
:102AF000000EC46F0CD03BEF14F09DEF15F0545155
:102B00000001C36FC46BA80EC327000EC423C58188
:102B1000010EC66FC58F12000001C58F020154510E
:102B2000EA6AA80FE96E000EEA2252C2EFFF120015
:102B300006D9020E3BEF16F01200ABD8050EE126C7
:102B40000201520510E150511F0B00090CE1000178
:102B5000C58F030E0201515D04E10001010ED16F2A
:102B600002D00001D16B0201525101E074D05051EA
:102B70001F0B020870E154510F0B00096CE0545117
:102B80000F0B040868E3200E0001A65D64E1C58F09
:102B9000020154BF04D050D9CCD8D7D803D051D9D2
:102BA000C8D8D7D8EA22020EEFCFDBFF09D9010B34
:102BB00003E1000EDF9401D0DF8454BF02D03CD982
:102BC00001D03FD9EA22DECFEEFFDDCFEDFF030ECD
:102BD000515D0CE13ED907E054BF02D0B6D801D018
:102BE000B8D8EA22EF82840E69D935D0DF7431D9A2
:102BF00006E045D8EF9E43D8EF8C04D902D03FD8E9
:102C0000EF8CDF74DDD8020B02E123D90DE0020165
:102C100054BF02D09AD801D09CD8EA22EF923B0E42
:102C20001F6E3DD9EFD802D03B0E39D90201545165
:102C30000F0B206A530F1F6E0F0E2022030E1FC0B2
:102C4000DBFF040E20C0DBFF030EDBCFE9FF040E29
:102C5000DBCFEAFFEF90050EE15C02E2E16AE552AC
:102C6000E16E1CD020D9C4D8E7EF16F0FE0EEA6A58
:102C7000DB3430EF17F0E66EE66A3EEF17F0DECF9A
:102C8000E9FFDDCFEAFF1200B7C0E9FFB8C0EAFFF5
:102C90001200D9CFE6FFE1CFD9FF1200E552E7CF0E
:102CA000D9FF120054510F0BE96EEA6AD890E93649
:102CB000EA361200A9C0E9FFAAC0EAFF1200F9D85B
:102CC000580EEE6E020EED6E1200E66E29EC1AF052
:102CD0001F6E050EE15E1F501200FE0EEA6ADB3425
:102CE00037EF17F0FD0EDB50E824216EFE0EDB50AF
:102CF000040DF35021241200DF50CCD8EA22EF6AF1
:102D0000DF50C3D8EA22EF6ADF2A1200EA22EE502F
:102D1000EFCFEAFFE96E1200E66ECFC0E9FFD0C048
:102D2000EAFFCF2B000ED023E552E750EF6EDF060F
:102D30001200EA22EECFDEFFEDCFDDFF1200000E23
:102D4000E66EE66AE66EE66A120054510F0B45EF36
:102D500017F054510F0B4AEF17F020221FC0DEFF6F
:102D600020C0DDFF1200160E616E0F019F0E5B6F1B
:102D70007B0E606E1200FE0EDBCFE6FFC3EC12F09E
:102D8000E552E5521200F7220900F5CFC3F00A0020
:102D9000F5CFC4F01200010EE66EE66A000EE66E94
:102DA000E66A1200F76AC325F66EC451F7220800DE
:102DB00012005251F66EF76AD890F636F7361200C6
:102DC000D950020FE96EDACFEAFFEF501200ABC024
:102DD000E9FFACC0EAFF1200040DF3CF1FF0F4CFFF
:102DE00020F0000E1F26020EB8DF840E5EEF17F0F3
:102DF00060D8500EEE6E020EED6E12004ADF020E2B
:102E0000E1261200020EE66EE66ADECFE6FFDDCFB7
:102E1000E6FF050E3BEF16F0040EE66EE66AE66A84
:102E2000540EE66E0F0E65EF16F01CDF8C0EEF6E83
:102E30002BDF840EEF6E120035DFAD0EE926000E9B
:102E4000120030DFB70EE926000E12000FDF86EF0A
:102E500016F015DFEF50800B12001BDFE652120058
:102E6000FE0BEA36E96EB70EE926000E1200FE0BE5
:102E7000EA36E96EAD0EE926000E1200BFEC0FF047
:102E80001F6E060EE15E1F501200EA6ADB0FE96E4C
:102E9000000E1200EA6AD60FE96E000E1200EFDE95
:102EA000E850EF16120093DFEE52080EEF6EE7EFD8
:102EB00016F0020EE926000EEA221200E0DEE850CB
:042EC000EF121200FB
:0C2EC4001201000200000008EA224A008F
:102ED00001000102000109028200040100C0320960
:102EE0000400000103010200092111010001223444
:102EF000000705810304000109040100020300002A
:102F00000009211101000122310007058203400060
:102F10000107050203400001090402000203010148
:102F200000092111010001223F0007058303080069
:102F30000107050303080001090403000203000060
:102F400000092111010001221D0007058403400032
:102F5000010705040340000105010902A10109015F
:102F6000A100050919012903150025019503750123
:102F70008102950175058101050109300931093882
:102F80001581257F750895038106C0C005010905D7
:102F9000A10115002501350045017501950C0509B4
:102FA0001901290C810295048101050109300931BB
:102FB00026FF0046FF00750895028102C005010941
:102FC00006A101050719E029E715002501750195FE
:102FD0000881029501750881039505750105081999
:102FE0000129059102950175039103950675081550
:102FF0000025E70507190029E78100C00600FF0941
:1030000001A10119012940150026FF00750895400E
:103010008100190129409100C004030904260342DC
:1030200000690074002000540072006100640065B3
:103030000020004F006E00650020004C005400444A
:10304000002E002803520045005600490056004556
:10305000002000550053004200200044006500623B
:10306000006F0075006E0063006500D62E19301DDC
:03307000304330BA
:0C307400A1D8FD0EDB50A96EA66AA68054
:10308000A8509FD099D8E652DF6AA6B20ED0FD0EA6
:10309000DB50A96EFC0EDB50A86E040EA66E550E1A
:1030A000A76EAA0EA76EA68202D0010EDF6EA6B290
:1030B000FED7DF50E55285D07FD8050EE126010E00
:1030C000DF6EDB6A87D8EF6A020EDB6AFC0EDB502C
:1030D000F36E020E7AD82FE2010EDB6A020E81D85F
:1030E000E76E040EE7CFDBFF020EDB28E76E030E70
:1030F000E7CFDBFFFC0EDB50F36E030E66D80CE26D
:10310000030E6FD8F36E040EDB50F35C02E1010E88
:10311000DB2A030EDB2AEED7FB0EDB04F36E010E77
:1031200054D806E357D8040EDBCFEFFFDF6A03D095
:10313000020EDB2ACBD7DF501F6E050EE15C02E2E8
:10314000E16AE552E16E1F503CD036D8020EE1260E
:10315000DF6A010EDB6AFB0EDB50F36E010E35D821
:1031600010E2FC0EDBCFE6FF010E15D88BDFE55237
:10317000E552E552000902E0010EDF6E010EDB2A86
:10318000EAD7DF501F6E020EE15C02E2E16AE5520F
:10319000E16E1F5016D0DB50E76EFD0EDBCF1FF047
:1031A000FE0EDBCF20F0E7501F26000E20221FC0AE
:1031B000E6FF20C0E6FF1200D9CFE6FFE1CFD9FF3E
:1031C0001200E552E7CFD9FF1200DBCFF4FFF35036
:1031D000F45C1200F90EDBCFE9FFFA0EDBCFEAFF59
:0C31E0001200D9DF47DFE552E552120073
:0431EC00020150513B
:1031F0001F0B010801E01200060E515D4EE1535114
:10320000230A4BE0010A21E0030A47E15451030A73
:1032100015E0010A0EE0030A07E0010A3EE10001A1
:10322000E80EC36F2E0E0ED00001010EC36F2F0EDD
:1032300009D00001210EC36F2F0E04D00001410EF2
:10324000C36F2F0EC46F090E24D05451030A1BE024
:10325000010A12E0030A09E0010A1FE10001580E09
:10326000C36F2F0EC46F340E14D000018C0EC36FC9
:103270002F0EC46F310E0DD00001BD0EC36F2F0E87
:10328000C46F3F0E06D00001FC0EC36F2F0EC46F3B
:103290001D0EC66FC76BC00EC56F02015051600B8B
:1032A000E842E842E842E842E842010801E0120050
:1032B00051510B0A26E0080A19E0090A11E0080A30
:1032C00005E00B0A23E0080A21E012000001F00EDD
:1032D000C36F000EC46F010EC66FC76BC10E0FD057
:1032E0000001800EC56F53C2F0F012000001F10E14
:1032F000C36F000EC46F010EC66FC76B810EC56F22
:0E33000012000001800EC56F52C2F1F01200E3
:02330E00006A53
:103310000EAE90EF19F00D6C0E1EE86A0E22001E24
:1033200009AE98EF19F0086C091EE86A0922001E20
:1033300051EC1AF009BEA8EF19F000AE000C086CB1
:10334000091EE86A0922046C051EE86A0522000CC1
:1033500000BE9FEF19F00188FF0C09C013F008C0F0
:1033600012F008500D02F4CF07F0F3CF06F0095029
:103370000E02F4CF09F0F3CF08F00D02F350072648
:10338000F4500822E86A092212500E02F350072670
:10339000F4500822E86A09220EAED3EF19F0125059
:1033A000085E1350095A13AE000C0D50085E0E5003
:0433B000095A000CAA
:0C33B4001E0EF66E100EF76E000EF86E86
:1033C00000010900F550EB6F0900F550EC6F03E1C7
:1033D000EB6701D03DD00900F550E66F0900F550CC
:1033E000E76F0900F550E86F09000900F550E96E34
:1033F0000900F550EA6E090009000900F550E96F6F
:103400000900F550EA6F09000900F6CFEDF0F7CF9B
:10341000EEF0F8CFEFF0E6C0F6FFE7C0F7FFE8C048
:10342000F8FF0001E95302E1EA5307E00900F55013
:10343000EE6EE907F8E2EA07F9D7EDC0F6FFEEC055
:10344000F7FFEFC0F8FF0001EB07000EEC5BBFD702
:02345000120068
:0E345200FE0EE3CFE9FFFF0EE3CFEAFFE9CF66
:10346000F3FFEACFF4FFFB0EE35003E1FC0EE35061
:1034700009E0FB0EE30602E2FC0EE306FD0EE3505C
:10348000EE6EF1D71200FE0EE3CFE9FFFF0EE3CFA1
:10349000EAFFF36AF46AEE5203E0F34AF42AFBD738
:0234A000120018
:0E34A200056A046A100EE76ED89008360936E7
:1034B000043605360D50045C0E50055805E30D50DA
:0E34C000045E0E50055A082AE72EF0D71200BF
:0234CE00000EEE
:1034D000F36E00EE00F0030E01D81200EA6002D095
:0E34E000EE6AFCD7F350E9601200EE6AFCD7EA
:0234EE0011EEDD
:1034F00000F021EE00F0F86A019CDAEC19F003EC20
:0A35000008F0EDEC09F0FBD7120013
:06350A004465626F756E5E
:10351000636520312E310000000000000000000033
:10352000000000000000000000000000000000009B
:10353000000000000000000000000000000000008B
:103540000000000000000000000000010100000079
:020000040030CA
:0100000000FF
:0100010032CC
:0100020001FC
:010003001EDE
:0100050000FA
:010006008178
:0100080003F4
:01000900C036
:01000A0003F2
:01000B00E014
:01000C0003F0
:01000D0040B2
:00000001FF
